S01000007475746F7269616C732E733337FD
S11300000010002019030000150300001503000070
S1130010150300001503000015030000150300007C
S1130020150300001503000015030000150300006C
S1130030150300001503000015030000150300005C
S1130040150300001503000015030000150300004C
S1130050150300001503000015030000150300003C
S1130060150300001503000015030000150300002C
S1130070150300001503000015030000150300001C
S1130080150300001503000015030000150300000C
S113009015030000150300001503000015030000FC
S11300A015030000150300001503000015030000EC
S11300B015030000150300001503000015030000DC
S11300C015030000150300001503000015030000CC
S11300D015030000150300001503000015030000BC
S11300E015030000150300001503000015030000AC
S11300F0150300001503000015030000150300009C
S1130100150300001503000015030000150300008B
S1130110150300001503000015030000150300007B
S1130120150300001503000015030000150300006B
S113013010B5054C237833B9044B13B10448AFF31D
S113014000800123237010BD7C10002000000000FB
S1130150B01E000008B5034B1BB103490348AFF3BD
S1130160008008BD0000000080100020B01E0000C8
S1130170A3F5803A704700BF174B002B08BF134B01
S11301809D46FFF7F5FF00218B460F461348144A9E
S1130190121A01F089FD0E4B002B00D098470D4B2D
S11301A0002B00D098470020002104000D000D48CA
S11301B0002802D00C48AFF3008001F051FD20006C
S11301C0290000F015F801F037FD00BF0000080019
S11301D00000000000000000001000207C1000203F
S11301E0A0100020000000000000000070477047CD
S11301F008B501F009FDFFF7F9FF01F012FDFFF763
S1130200F6FFFAE77047000008B50421112000F05A
S11302105BFE0B48012100F0EDF90A48022100F0D1
S113022053FE0948022100F04FFE0848022100F065
S11302304BFE0748022100F047FE002008BD00BF26
S113024030053E0002001E000300200004002200CE
S11302500500240008B54FF0804301225A6403F5D9
S113026064231B49D3F8B02042F00102C3F8B02044
S1130270D3F8E02042F00802C3F8E0204A6B42F4CD
S113028080524A63D3F8E02022F00802C3F8E02049
S1130290D3F8B02022F00102C3F8B0200D4AD2F8FE
S11302A0A43143F4F843C2F8A43101F08FFC00F008
S11302B02BF801F025FC01F047FC01F073FCFFF77B
S11302C0A3FF01F033FCBDE8084000F011B800BF03
S11302D00040054000300E40704700F006B87047FB
S11302E0704770477047704770470F207047000091
S11302F008B50448012100F07DF9BDE80840FFF786
S113030081BF00BF00450A000148012100F072B915
S113031000450A00FEE7000008B500F079F8064B36
S11303200649074A8B4201D3FFF726FF52F8040B14
S113033043F8040BF6E700BF001000207C100020F7
S1130340B81E00000048704700A24A04174AD2F8B9
S1130350943003F00703023B042B1FD8DFE803F0BB
S11303600620031A0800124B1B680AE0114BFBE736
S11303709368C3F30443073B072B14D80E4A52F87F
S113038023300A4AD2F80001C0F304200130B3FB41
S1130390F0F07047094B1B685B08F2E7074BE3E793
S11303A04FF40043EDE70023EBE700BF00400E40AD
S11303B00C10002004100020D41C000008100020A1
S11303C008B5FFF7C3FF054BD3F80831C3F308237F
S11303D00133B0FBF3F0024B186008BD00400E403F
S11303E000100020014B1868704700BF0410002063
S11303F0054B1860054BD3F8943003F00703022B28
S113040001D1FFF7DDBF70470410002000400E400B
S1130410044B054A9A60D3F8882042F47002C3F86A
S11304208820704700ED00E000000000FEE70000B7
S11304300C4B984210D90C4B984210D9022201233C
S11304400A490B640A49D1F8003123F0407343EAA6
S11304500263C1F80031704700221346F0E701221D
S1130460FBE700BF0048E8010090D0030000C84348
S113047000400E4038B54FF0804300225B68104BBB
S1130480C9B21C461D798D4202D11D68854213D222
S11304900132072A03F10803F4D10A4841F2385122
S11304A0FFF7C4FF03224FF080414B6823F04073F1
S11304B043EA02634B6038BD04EBC2025279F2E7AF
S11304C00C1E0000F41C00001F2810B5044604D9BB
S11304D0034840F24311FFF7A9FF0120A04010BDDB
S11304E03B1D000038B54FF0804441F67133256C54
S11304F02364FFF727FF0021FFF7BCFF0DB10023A2
S1130500236438BD044BDB6B5B0604D4034AD2F886
S1130510C830002BFBD1704700300E400000C643AA
S113052008B5FFF7EFFF024B5868C0F3014008BD60
S113053000300E40044BD3F84421D20703D4D3F83F
S113054040211042FBD1704700400E40B0F5004FEF
S113055038B5054604D30B4840F61161FFF766FF32
S11305606C1CB4FA84F4C4F11F042046FFF7ACFFFA
S11305700138A84204D0034840F61761FFF756FF3C
S1130580204638BD851D00004FF0804341F671328E
S113059070B51E6C1A6405460C46FFF76BFF114AD2
S11305A0114B022C08BF13469D42104A09D94FF043
S11305B08C43C3F800210E4A954207D84FF0884374
S11305C006E04FF08843C3F80021F7E7002CF5D18B
S11305D04FF480521A601EB14FF0804300221A6417
S11305E070BD00BF0024F40080D543020202020063
S11305F080F0FA02C0F30322013A38B503460E2A0A
S11306003DD8DFE802F043463C36081B1E2125395D
S1130610292E3C183300204C0020C3F3043508B1C4
S1130620FFF788FF04F1424404F5801405EBC40489
S1130630A400216038BD194C0020EEE7184C0120BD
S1130640EBE7184C1020E8E7174C4FF48070E4E710
S1130650164C4FF48030E0E7154C81F00101002086
S1130660DBE7144C81F001010020D6E7124C002096
S1130670D3E7124C0020D0E7114C0020CDE7BDE8B1
S11306803840104841F6D521FFF7D0BE0E4C00206B
S1130690C3E70E4C0020C0E7B0400E40C4400E40FB
S11306A0E0400E40E8400E40EC400E40F0400E406A
S11306B060410E4064410E40F0410E4068410E40DE
S11306C050410E40F41C000000400E40C0400E405B
S11306D0C0F30313013B10B50C460B2B00F214823C
S11306E0DFE813F00C00340045005C007000840067
S11306F09800B8005D01CA01D601FE011F2904D982
S1130700C24841F6F941FFF791FEFFF7EBFEC048FE
S1130710FFF78EFE00F006FABE4BD3F8001121F469
S1130720F85141EA0424C3F80041FFF749FE0446A6
S1130730FFF7F6FE01462046FFF726FFFFF706FE09
S1130740FFF776FEBDE8104000F002BA1F2904D975
S1130750AE4841F60F51FFF769FEAE4BD3F81411C2
S113076021F4F85141EA0424C3F8144110BD4B1E8E
S1130770B3F5004F04D3A84840F62451FFF756FEC2
S1130780A44BB4FA84F1D3F80041C1F11F0124F061
S1130790407444EA0164C3F80041E7E7B1F5007F1F
S11307A004D39A4841F61C51FFF740FE994BD3F805
S11307B00C1121F4FF3121F4807141EA0421C3F8C2
S11307C00C11D3E7B1F5007F04D3904841F62351CF
S11307D0FFF72CFE8F4BD3F8181121F4FF3121F4CD
S11307E0807141EA0421C3F81811BFE7B1F5007F15
S11307F004D3864841F62B51FFF718FE854BD3F8F6
S11308001C1121F4FF3121F4807141EA0421C3F861
S11308101C11ABE7B1F5007F04D37C4841F632519B
S1130820FFF704FEFFF75EFE7A4BD3F8081121F4BC
S1130830FF3121F4807141EA0421C3F80811FFF764
S1130840BFFD0446FFF76CFE01462046BDE810409C
S1130850FFF79ABE714B984274D010D8704B9842EF
S113086046D0704B984257D0A3F57033984226D0A7
S113087041F6AE51BDE810406448FFF7D7BD6A4B5E
S1130880984205D0694B984273D0694B9842EFD196
S1130890B4F5004F04D95D484FF4ED51FFF7C6FDA0
S11308A02046FFF753FE01460420FFF743FE594A52
S11308B0D2F8203123F4E04343EA013315E0B1F5E3
S11308C0004F04D9514841F64451FFF7AFFD20468B
S11308D0FFF73CFE01460420FFF72CFE4D4AD2F8F8
S11308E0203123F4702343EA0143C2F820313DE769
S11308F0022904D941F655514448FFF797FD4FF4B6
S11309008020FFF717FE434BD3F8301121F0030189
S11309100C43C3F8304129E7B1F5004F04D93B48F3
S113092041F67251FFF782FD2046FFF70FFE0146A4
S11309300420FFF7FFFD374AD2F8203123F00F03DC
S11309400B43D2E7B1F5004F04D9304841F6815149
S1130950FFF76CFD2046FFF7F9FD01460420FFF781
S1130960E9FD2C4AD2F8203123F0F00343EA0113C5
S1130970BBE7082904D9254841F69051FFF756FDF5
S11309802046FFF7E3FD01460420FFF7D3FD214A8B
S1130990D2F8203123F4407343EA0123A5E7254B21
S11309A098421DD003F5A113984247D0224B984298
S11309B05FD1082904D9154841F6B751FFF736FD30
S11309C02046FFF7C3FD01464020FFF7B3FD114A5F
S11309D0D2F8283123F003030B43C2F82831C5E6CB
S11309E0082904D9094841F6C651FFF71FFD2046DE
S11309F0FFF7ACFD01464020FFF79CFD054AD2F805
S1130A00283123F0300343EA0113E6E7F41C000025
S1130A100148E80100400E40851D000080161800C2
S1130A20A00914008006160000362C0080262E0033
S1130A3080002A0090171C0090071A00A1F10F03F0
S1130A40702B04D9324841F6D551FFF7EFFC20460C
S1130A50FFF77CFD01464020FFF76CFD2D4AD2F8DC
S1130A602801043920F4405040EA0130C2F828013A
S1130A707CE641F6E451FDE6274B984205D1022974
S1130A807FF63DAF41F6EE5136E741F6FE51F1E611
S1130A90224B984205D0224B984212D041F617615E
S1130AA0E8E6032904D91A4841F60961FFF7BEFCB8
S1130AB0184BD3F85C1121F003010C43C3F85C41DB
S1130AC054E6032904D9124841F61161FFF7AEFC3C
S1130AD0104BD3F85C1121F4403141EA0444EDE7B2
S1130AE0B1F5007F04D30A4841F61F61FFF79EFC6D
S1130AF0084BD3F8041121F4FF3121F4807141EA49
S1130B000421C3F8041131E641F62661B2E600BFC0
S1130B10F41C000000400E40A0091400B80032008C
S1130B20B900340008B507480321FFF7D1FD064892
S1130B300321FFF7CDFDBDE8084004480321FFF77A
S1130B40C7BD00BF40410500504107006041090096
S1130B5037B5FFF7FBFB0446FFF7E2FC022817D189
S1130B60194B1A481A491C449C42B4FBF1F188BF42
S1130B7001F1FF310191FFF7ABFD01991548FFF732
S1130B80A7FD0199144803B0BDE83040FFF7A0BDAC
S1130B90124B134D0D48E2189A42B2FBF5F588BF8B
S1130BA005F1FF352946FFF793FD0B482946FFF76A
S1130BB08FFD0C4B0C4907481C449C42B4FBF1F1DB
S1130BC088BF01F1FF31DEE7FF2C31014041050010
S1130BD0002D310150410700604109007FF0FA0205
S1130BE080F0FA02FFA14A0400A24A0400F00F00B8
S1130BF0013808B50C2800F28480DFE800F0071201
S1130C001C30263A824452606C707900454BD3F80C
S1130C10943003F00703023B052B7FD8424AD05C93
S1130C2008BD404BD3F8803003F00703013B032B8E
S1130C3076D83E4AF3E73B4BD3F8843003F00703FE
S1130C40013B032B6CD83A4AE9E7364BD3F888309A
S1130C5003F00703013B032B62D8364ADFE7314B2D
S1130C60D3F88C3003F00703013B032B58D8324AE6
S1130C70D5E72C4B1B6F13F0030349D0012B14BF92
S1130C8001200920CCE7274BD3F85C3103F0300373
S1130C90202B3FD0302B3FD0102B14BF0120072036
S1130CA0BEE7204BD3F85C3103F44013B3F5001FC7
S1130CB030D0B3F5401F2FD0B3F5801FEDE7194BAB
S1130CC0D3F8600100F00300431E022B26D800EB8A
S1130CD040000130A4E7134BD3F86401F2E7114B51
S1130CE0D3F8F03103F00703052B19D8134A96E71C
S1130CF00C4BD3F8683103F00303032B10D0104AD4
S1130D008DE7104842F22501FFF790FB002087E7AA
S1130D10072085E7042083E7082081E705207FE793
S1130D2001207DE700400E40CC1D0000D21D0000D4
S1130D30D61D0000D21D0000D21D0000DA1D0000E7
S1130D40E01D0000F41C0000014B1880704700BF38
S1130D5010100020022838B50C4604D00D4842F685
S1130D608F01FFF763FB0C4D6B6AC3F30113012B77
S1130D700DD064B1074842F6AA01FFF757FB074BB1
S1130D80D5F8902033EA0202FAD1012038BD4FF49D
S1130D908003F5E7F41C000000400E40FF3F4F3A8B
S1130DA005282DE9F04704460F4691461FD83E4BCF
S1130DB03E4A13F800A03E4B13F80080F1B93D4BB6
S1130DC033F810301366012303FA08F8D2F8903090
S1130DD013EA080FFAD1B9F1000F61D00125334AA3
S1130DE005FA0AF5D2F890302B42FBD158E0BDE861
S1130DF0F047314842F27471FFF718BB2F4B0228B9
S1130E0033F810604ED1536AC3F30113012B49D157
S1130E102B4BDB6B5B0504D4274842F28371FFF74D
S1130E2005FB224A536A03F00303032B05D1536ADB
S1130E3023F0300343F020035362224D1B4BA8449C
S1130E401E664FEA8808D8F80030002BFBD0B9F1B1
S1130E50000F25D05544AD002B68002BFCD0022C8C
S1130E601ED1EFB1114B5B6A03F00303032B03D0D4
S1130E7000212046FFF76EFF0F484FF42051FFF783
S1130E80D5FA012200210220FFF78AFF0A4842F620
S1130E907701FFF7CBFA054B1E662B68002BFCD0BD
S1130EA0BDE8F0870027C8E7E31D000000400E40BE
S1130EB0E91D0000FC1D0000F41C0000F01D0000F2
S1130EC000300E408004F210112838B50C4614D0BE
S1130ED000F00F0001380C2800F21282DFE810F055
S1130EE02A007200B4008E00B000CE001002DC00B4
S1130EF00301280158019C01EA01042913D1FFF7D9
S1130F0071FA0546B0B10021284600F08DFB023C81
S1130F100C2C49D8DFE804F0514E353B484848488A
S1130F201048414B5400052904D1B14B1D68B14B05
S1130F309D42E8D80025EAE705200624012211464F
S1130F40FFF72EFFFFF7CEFAFFF7ECFD0DB1FFF729
S1130F50D9FAA94B5C67FFF733FA0446FFF7F6F9B1
S1130F60FFF766FAFFF7DCFA01462046FFF70CFBB1
S1130F701DB90121284600F057FBBDE83840FFF7B2
S1130F80E7BD9E48FFF754FA02200446D6E79B4883
S1130F90FFF74EFA01240320D0E742F2E601BDE850
S1130FA038409748FFF742BA42F2EB01F7E70320D3
S1130FB00524C3E701200324C0E700200424BDE77F
S1130FC00724BFE7062941D18D488E4D42F22A11EC
S1130FD0FFF72CFA8A4842F23211FFF727FA8848C1
S1130FE042F23A11FFF722FAFFF7B0F9FFF720FABD
S1130FF0854B0122C3F8002603232AE00629834DEA
S1131000E8D0013C0B2C34D801A353F824F000BFE2
S113101079100000571000006510000073100000E4
S113102073100000E90F000073100000731000003B
S113103073100000731000007310000051100000C2
S11310400629734DDDD1CAE7724DDAE76D4DD8E755
S113105004232B6038BD012211460020FFF7A0FEB7
S11310600223F6E7012211461046FFF799FE0123F9
S1131070EFE742F2651192E70023EAE7072904D07B
S1131080092906D042F2EF1189E75B4B00221A6767
S1131090E0E7594B0122FAE74C1E072C1ED8DFE883
S11310A004F0201D1D161D1D0F0403225249D1F802
S11310B05C3123F0300343EA0213C1F85C31C9E721
S11310C0012211460420FFF76BFE0122EEE7012204
S11310D011460220FFF764FE0222E7E742F24D21A7
S11310E05DE70022E2E74C1E072C1CD8DFE804F081
S11310F01E1B1B141B1B0D0403223F49D1F85C313A
S113110023F4401343EA0253D7E701221146042093
S1131110FFF746FE0122F0E7012211460220FFF705
S11311203FFE0222E9E742F2702138E70022E4E7B9
S11311300C1F062C29D8DFE804F01304281A2828E9
S11311402100012211460320FFF72AFE00222A492A
S1131150D1F8603123F003031343C1F8603179E718
S1131160012211460220FFF71BFE0122EFE70122B4
S113117011460420FFF714FE0222E8E7012211467B
S11311800520FFF70DFE0322E1E742F2972106E76F
S11311900C1F062C29D8DFE804F01304281A282889
S11311A02100012211460320FFF7FAFD0022124913
S11311B0D1F8643123F003031343C1F8643149E7E0
S11311C0012211460220FFF7EBFD0122EFE7012285
S11311D011460420FFF7E4FD0222E8E7012211464C
S11311E00520FFF7DDFD0322E1E742F2BE21D6E64A
S11311F008100020002D310100400E400148E80194
S1131200F41C000080400E400010C8438C400E4087
S113121088400E4084400E408C1E092C47D8DFE8DD
S113122004F0383F143146464646051B0122114658
S11312300520FFF7B5FD00233349D1F8F02122F052
S113124007021343C1F8F03104E7012211460220DA
S1131250FFF7A6FD0123EFE7FFF7C4F82B4B9842F5
S113126004D92B4842F2D921FFF7E0F8264A536A01
S113127043F008035362012211460220FFF790FD58
S11312800223D9E7012211460320FFF789FD032336
S1131290D2E7012211460020FFF782FD0423CBE7A9
S11312A0012211461046FFF77BFD0523C4E742F2F5
S11312B0F82174E6052919D00A2908D004291CD17B
S11312C0012211460220FFF76BFD012205E00122F5
S11312D011460520FFF764FD02220B49D1F868315D
S11312E023F003031343C1F86831B3E60122114626
S11312F00320FFF755FD0022EFE742F219314EE6D5
S113130042F224314BE600BF00400E4040787D019C
S1131310F41C000038B504461120FFF767FC0428CC
S113132004D11F4842F20F61FFF780F80122002127
S11313300220FFF735FDE37A022B2AD8194AD25C42
S1131340194D6B6A23F0030313436B62FFF74AF8EA
S1131350164B2288984294BF082000206B6A23F021
S113136008031843A388686243EAC223EB622B6B29
S1131370E2881B0D1B051343628843EAC2232B63D7
S1131380637A227A1B0143EA0233A27A13436B6322
S113139038BD034842F22361FFF748F80022CFE743
S11313A0F41C0000081E000000400E4040787D013F
S11313B070B505461120FFF719FC022804D10F4827
S11313C042F2CD61FFF732F80D4E0E4BB26B2C7822
S11313D013401C436B7844EAC324AB7844EA0364A7
S11313E0EB7844EA0324B36BA34205D00021012225
S11313F00846FFF7D5FCB46370BD00BFF41C0000C1
S113140000400E4080E4FFF8034BD86B80F04000AE
S1131410C0F38010704700BF00300E4038B542EA78
S11314200323B3F5007F05460C463ED019D8B3F527
S1131430807F36D00AD883B3012B21D01F4840F6D1
S1131440EE11FEF7F3FF002213461FE040F20112F3
S11314509342F3D11A4BD3F824321A0EC3F3074341
S113146014E0B3F5407F24D040F20132934210D00F
S113147040F201229342E1D1114BD3F8283202E029
S11314800F4BD3F82432C3F30722DBB22B60226064
S113149038BD0B4BD3F82832DFE7094BD3F81C32A5
S11314A0F1E7074BD3F81C32D7E7054BD3F82032CA
S11314B0E9E7034BD3F82032CFE700BF441E000016
S11314C00081E00F08B5FFF79FFF20B1024AD2F870
S11314D0C830002BFBD108BD0000C6431A4B0228BC
S11314E010B5D3F830320C4612D0032813D001289B
S11314F014BFDBB2C3F307231B0323F47042ECB91C
S11315005AB140F67D111148FEF790FF002010BD3E
S1131510C3F30743F0E71B0EEEE70D49CA6E22F44E
S113152070421343CB660120F1E70949D1F8EC205E
S113153022F470421343C1F8EC30F4E7002AF4D0EB
S113154040F68911DFE700BF0081E00F441E000070
S113155000300E400378134A002B437870B514BF53
S113156004260026002B8378946914BF02250025E5
S1131570002B037924F03F0443EA0403C47814BF26
S113158008210021012C08BF43F0010333432B43FE
S11315900B4393611368417923F4403343EA0143D5
S11315A0136070BD00300E40F8B504460F46FFF7D7
S11315B02BFF78B3FFF786FF174B5B68C3F3014338
S11315C09C4227D0154BD3F80061FEF7BFFE022CD6
S11315D005460FD1124BC6F3042606FB00069E42B5
S11315E004D9104840F21471FEF720FF0221284666
S11315F0FEF7CAFFC4F1020210239340064A1361A6
S11316000FB1FFF75FFF2CB921462846BDE8F8402B
S1131610FEF7BABFF8BD00BF00300E4000400E40D8
S1131620002D3101441E000013B50246FFF7ECFE05
S1131630C8B152B90D4B0191D3F80041FEF786FEB3
S1131640C4F30422019902FB0002094B1B7843B145
S1131650084B9A4205D8022002B0BDE81040FFF7BB
S1131660A3BF0020F8E702B010BD00BF00400E4049
S11316709E100020002D3101174B4AF6E85210B598
S1131680596B5A639A6FD407FCD41B6C13F0030391
S11316901EBF124A0124C2F8B44A834216D00E4B2C
S11316A09A6FD207FCD41A6C22F0030202431A6424
S11316B09A6F12F00102FBD10038084C18BF0120C8
S11316C00129C4F8B40A08BF5A6303E010B9034BF4
S11316D0C3F8B40A10BD00BF00300E400000C6437A
S11316E02DE9F04FA0F5E16389B00024B3F5966FBE
S11316F0CDE90244CDE90444CDE9064406468A46D0
S1131700934605D940F677315548FEF78FFEA3E09E
S1131710B0F5E16F534B8CBF0122002249D1D3F8BD
S11317201832C3F30721DBB2079104934FF4167503
S11317304FF4966748E0BBF1000F0ED0D9F85C2057
S113174022F4FE4222F00202B6F5E16F42EA0122DF
S113175018BF02200243C9F85C20BAF1000F26D05A
S113176020460021FFF7BAFE044610B940F6D431F2
S1131770CAE701214046FFF7B1FE044610B940F61E
S1131780DC31C1E7384A536EBD4238BF3D4623F4CD
S1131790FF73E72D23F0010328BFE725B6F5E16FBA
S11317A018BF43F0010343EA4503536654E00124A0
S11317B052E0D3F81832190EC3F307430791049388
S11317C04FF496654FF4E167DFF89C90D9F84C40EC
S11317D00192C4F30174234605A902A8FFF71EFE73
S11317E0D9F8EC30019AC3F30128434606A903A8AB
S11317F0FFF714FE049BF01B079FF91A4143B1FB4A
S1131800F5F299182CBF012300238F421ED3EBB9A4
S1131810069A039FD31B4343B3FBF5F3FF182CBF76
S113182001230023BA4211D383B9059B029AA3EB87
S1131830020C00FB0CF0B0FBF5F555192CBF012090
S11318400020AB4202D300283FF475AF044840F6B1
S1131850C531FEF7EBFD0024204609B0BDE8F08F4A
S1131860441E00000081E00F00300E40334A08B5EA
S1131870136FD16C11F0010F03F0060344D0002B59
S113188042D0132857D9143813288CBF10230823A7
S11318902A49013BCA6C180322F47F4240EA03231D
S11318A01343CB64264BCA6C1B88C2F30322283330
S11318B0013202EB820003EB5303B3FBF0F3C86C79
S11318C0013B072B28BF072320F0EE6040EA0363A7
S11318D043F48013CB641B4BB3F90030002B12DBB1
S11318E003F12800C0F34E030344500800EB420206
S11318F0B3FBF2F20B6D072A28BF072223F0700313
S113190043EA02120A6508BDD16C01F001011943D2
S113191004D109280FD90A380928B6E7D26CD207AE
S113192002D50BB92728B0E7074840F61A41FEF75D
S11319307DFD0023ACE70423AAE700BF00300E407E
S11319409A1000209C100020441E00000C4BD3F879
S1131950803910B5044633B9012804D9094840F642
S11319603841FEF763FD084A136F23F0070323434E
S11319701367064BBDE810401888FFF777BF00BF18
S11319800000C643441E000000300E4098100020A2
S113199038B50389C82B044604D9514840F61C21A4
S11319A0FEF744FDA28823899A4204D94C4840F6A4
S11319B01D21FEF73BFDB4F90C30C82B04DD48486B
S11319C040F61E21FEF732FD6378012B55D1A38822
S11319D0C82B04D940F622214148FEF727FDE288AE
S11319E042F210739A4204D93D4840F62F21FEF783
S11319F01DFDE3884A2B48D9B3F5FA7F47D340F657
S1131A00C312934294BF4FF000524FF040523549F5
S1131A10B4F90C00CB6C23F0405323F001030028ED
S1131A20A8BF43F001031343CB64D1F8EC30A28880
S1131A3043F44073C1F8EC302B4B1A80CB6E43F067
S1131A408073CB66294BD3F8800900B10420FFF7DB
S1131A507DFF274B21891980264BB4F90C20A088DF
S1131A601A80FFF703FFA37BA3B1012B23D01C48EB
S1131A7040F62E11FEF7DAFC0FE0022BAFD1A3885B
S1131A800A2BACD940F62721A6E70022BFE74FF086
S1131A908052BCE7134B184A9A65012260881146AC
S1131AA0FFF71EFE054648B90D4840F66621FEF7CD
S1131AB0BDFC284638BD0B4B104AEDE7094AD36BF1
S1131AC043F48063D3636078FFF7D6FDA37AA3F170
S1131AD0200253425341054AC2F89437E9E700BF54
S1131AE0441E000000300E40981000200000C64341
S1131AF09A1000209C10002077402057372110B7FF
S1131B007FB5094B6A4603F11006154618685968F3
S1131B10144603C40833B3422246F7D12846FFF7DC
S1131B2037FF002004B070BD8C1E000013B50223E3
S1131B300024684600948DF804408DF80530FFF7C2
S1131B4009FD204602B010BD1FB5124A1068516845
S1131B5001AB03C3906818600F4BD3F8B420120391
S1131B600FD4D3F8B830C3F308030C48ADF80630EB
S1131B70FEF73EFC01A8FFF7CDFB002005B05DF8A1
S1131B8004FB074B1B884FF6FF72934208BF842364
S1131B90EBE700BF9C1E00000081E00F80F0FA021A
S1131BA00001E00F07B5084B18680190462301A80F
S1131BB08DF80430FFF7FCFB6420FFF7C5F8002024
S1131BC003B05DF804FB00BFA81E000010B50C486C
S1131BD00C4C6FF00402A02112F0800FD3B21BBF93
S1131BE003F00F03043BA3181B1802F101020CBFFE
S1131BF083F8001319763C2AEED1002010BD00BFF3
S1131C0000ED00E000E100E008B5FEF723FBFEF77D
S1131C1063FBFEF762FBFEF762FBBDE80840FEF7DC
S1131C205FBB08B5FEF75DFBFEF75CFBFEF75BFBF5
S1131C30BDE80840FEF758BB08B5074B044613B18E
S1131C400021AFF30080054B1868836A03B19847FD
S1131C50204600F031F800BF00000000AC1E000078
S1131C6070B50D4D0D4C641BA4100026A64209D17D
S1131C700B4D0C4C00F022F8641BA4100026A64265
S1131C8005D170BD55F8043B98470136EEE755F889
S1131C90043B98470136F2E77410002074100020CA
S1131CA0741000207810002002440346934200D1AF
S1131CB0704703F8011BF9E7FEE700BFF8B500BF62
S1131CC0F8BC08BC9E467047F8B500BFF8BC08BC19
S1131CD09E4670470024F40000000000000000004D
S1131CE0000000000048E80100000000006CDC0275
S1131CF080F0FA02433A2F55736572732F722F5393
S1131D00696D706C696369747953747564696F2F54
S1131D1053444B732F6765636B6F5F73646B2F70F2
S1131D206C6174666F726D2F656D6C69622F73726E
S1131D30632F656D5F636D752E6300633A5C757325
S1131D406572735C725C73696D706C6963697479D4
S1131D5073747564696F5C73646B735C6765636BE0
S1131D606F5F73646B5C706C6174666F726D5C65DD
S1131D706D6C69625C696E635C656D5F636F6D6DEC
S1131D806F6E2E6800633A5C75736572735C725C87
S1131D9073696D706C696369747973747564696F60
S1131DA05C73646B735C6765636B6F5F73646B5CBC
S1131DB0706C6174666F726D5C656D6C69625C6990
S1131DC06E635C656D5F636D752E68000403020DC0
S1131DD00A0E0302010C0302060C0A040B0502039B
S1131DE005040A09070301050B08060200040A009A
S1131DF00001400004000100100000040002800003
S1131E0008000200200000080001030080A812015D
S1131E1000000000005125020001000080F9370392
S1131E200002000000A24A0400030000C0CF6A00C0
S1131E3002000000809FD50002010000002D310146
S1131E4002020000433A2F55736572732F722F53A9
S1131E50696D706C696369747953747564696F2F03
S1131E6053444B732F6765636B6F5F73646B2F70A1
S1131E706C6174666F726D2F656D6C69622F73721D
S1131E80632F656D5F656D752E63000000020807A2
S1131E9005000A00C8000000FFFF01000000000068
S1131EA0000600010D080E000002070014100020B7
S10B1EB0C0E2FF7F0100000005
S1131EB8C0EA210180F0FA02C0EA21010080000092
S1131EC8FFFF000000000000000000000000000008
S1131ED800000000000000000000000000000000F6
S1131EE800000000000000000000000000000000E6
S1131EF800000000000000000000000000000000D6
S1131F0800000000000000000000000000000000C5
S1131F1800000000000000000000000000000000B5
S10F1F2800000000550100003101000021
S9030319E0
