S010000045464D3332504732322E733337AC
S1130000001000209D0600009906000099060000DB
S11300109906000099060000990600009906000060
S11300209906000099060000990600009906000050
S11300309906000099060000990600009906000040
S11300409906000099060000990600009906000030
S11300509906000099060000990600009906000020
S11300609906000099060000990600009906000010
S1130070E13400009906000099060000990600008A
S113008099060000990600009906000099060000F0
S1130090990600005D0C0000990600009906000016
S11300A099060000DD0D0000B90D0000990600005E
S11300B099060000990600009906000099060000C0
S11300C099060000990600009906000099060000B0
S11300D099060000990600009906000099060000A0
S11300E09906000099060000990600009906000090
S11300F09906000099060000990600009906000080
S1130100990600009906000099060000990600006F
S1130110990600009906000099060000990600005F
S1130120990600009906000099060000990600004F
S1130130990600009906000099060000990600003F
S113014010B5054C237833B9044B13B1044800E0CF
S113015000BF0123237010BDB01100200000000077
S1130160E840000008B5034B1BB10349034800E015
S113017000BF08BD00000000B4110020E8400000EA
S1130180A3F5803A704700BF174B002B08BF134BF1
S11301909D46FFF7F5FF00218B460F461348144A8E
S11301A0121A03F02BFC0E4B002B00D098470D4B7A
S11301B0002B00D098470020002104000D000D48BA
S11301C0002802D00C4800E000BF03F0F3FB20003D
S11301D0290000F017F803F0D9FB00BF0000080065
S11301E0000000000000000000100020B0110020FA
S11301F0C4150020000000000000000000F01EB83C
S113020000F024B808B503F08FF9FFF7F7FF03F007
S113021098F9FFF7F5FFFAE707B503F0F5F950B1E0
S11302200DF1070003F0F8F928B19DF80700A0F1DB
S113023020035842584103B05DF804FB0022024BEE
S11302401A7003F0B9B900BFCC110020F0B54F4CBF
S113025087B02378062B0FD8DFE803F00409103F9A
S1130260445662004A4803F0E1F9012303E0494897
S113027003F0DCF90223237007B0F0BD464803F015
S1130280D5F901A803F0C8F920B9444803F0CEF920
S11302900723F0E79DF8040003F0ACF99DF804305F
S11302A0312B15D00CD8202B15D0302B0DD03C4839
S11302B003F0BCF99DF8040003F09CF93948D2E737
S11302C0322BF4D103F086F9D6E703F07DF9D3E7B6
S11302D003F074F9D0E70323CDE7334803F0A6F91C
S11302E00423C8E7FFF798FF08B10523C3E703F029
S11302F077F920B107B0BDE8F04003F05FB907B06B
S1130300BDE8F04003F060B9284803F08FF903F02A
S1130310A0F94FF4004103F0A3F906236060AAE7B3
S113032003F097F90646FFF777FF08B10023A2E729
S11303303046616803F096F9054600289CD103F025
S113034049F90A2003F056F94EB9302003F052F966
S11303504FF40041606803F083F960608CE701ABFF
S11303601F460A20B6FBF0F100FB1162303203F89D
S1130370012B3246092A0E4605F10105F2D8013D4A
S1130380785D03F037F9002DF9D1E1E7CC110020B5
S1130390283A00005C3A0000B13A0000B83A000084
S11303A0E73A0000FD3A0000FF3A00005B3B000022
S11303B008B5012000F09CF8202000F099F8BDE871
S11303C00840402000F094B808B50321802001F0D3
S11303D027FE03214FF4806001F022FE03214FF435
S11303E0906001F01DFE08214FF4C06001F018FE7A
S11303F008214FF4F06001F013FE08213E2001F0C3
S11304000FFE08212D2001F00BFE002008BD000086
S113041008B5134B1B68C3F30743012B0ED1114BD3
S113042004205A6E4FF480230F49520358BF0F4AD9
S11304304B6601F51041086258BF536602F030FE66
S113044000F08FF802F0B2FD02F0D2FD02F00EFED1
S1130450FFF7BAFF02F0BAFDBDE8084000F076B835
S11304600080E00F008000400090004000A00040A9
S113047008B500F04BFC00F013F800F017F8BDE8E5
S1130480084000F023B808B500F030F8BDE8084093
S113049002F0ACBE704770477047704770477047B2
S11304A0014800F07DB900BF983B0000014800F00E
S11304B03ABA00BFB03B000018B1034B18600020EB
S11304C070472520704700BF1012002010B5054C5E
S11304D00549206800F01EFF2068BDE81040FFF7C2
S11304E0EBBF00BF301000200C1000200F2070471D
S11304F0082808B516D00DDC022803DC002811DC1E
S1130500EB2102E00428FBD1C2210F4801F000F8DE
S11305100E2013E020280AD0402810D01028EFD154
S1130520D421F2E7002304220621022003E004225E
S113053000231146012002F0FFF9002008BD00232A
S113054004220721F1E700BFC83B000008B50121E0
S11305503A2001F0B9F9FFF72BFFBDE8084000F09D
S113056011B801213A2001F0AFB900000822014B73
S11305701A67704700D003400822014B1A6770477E
S113058000E00340F0B5404D89B001AC0FCD0FC47D
S113059095E8070084E80700012401213A2001F0CE
S11305A093F93A4F0121282001F08EF9384B38464F
S11305B001A903938DF8124002F07AFC2346042229
S11305C00021022002F0B8F922462146002302202D
S11305D002F0B2F9022123460846042202F0ACF9E3
S11305E0042203212346022002F0A6F94FF002134D
S11305F0284D0226C5F83036A3F58033C5F82C36CD
S11306001C23C5F834664FF44870C5F81C3602F054
S1130610A3FF1420FFF7B0FF02F09EFF2320FFF793
S1130620A5FF02F099FFB9213846FFF7A5FF02F0B4
S1130630ADFCFFF79BFF002330461A46194602F033
S11306407BF9002321461A46304602F075F9234609
S113065031463046002202F06FF92346002203217E
S1130660304602F069F9384602F054FB0021282094
S1130670C5F83016C5F82C16C5F83416C5F81C167E
S113068001F022F909B0F0BD203C000000C0054093
S113069000127A0000C00340FEE7000008B500F035
S11306A013F8064B064A07498B4201D3FFF76CFD4A
S11306B052F8040B43F8040BF6E700BF00100020C7
S11306C0F0400000B0110020044B054A9A60D3F8B2
S11306D0882042F47002C3F88820704700ED00E0DF
S11306E000000000014B1868704700BF381100205B
S11306F0084B1B6F03F00703022B04D0032B05D018
S1130700012B05D0FEE7044B18687047034BFBE749
S11307100348704700800040381100203C1100203D
S1130720002D310108B5FFF7E3FF054B1B6FC3F341
S113073003330133B0FBF3F0024B186008BD00BF74
S113074000800040341100200048704700B4C40405
S1130750014B1868704700BF3C110020054B18601E
S1130760054B1B6F03F00703032B01D1FFF7DABF1F
S1130770704700BF3C1100200080004000207047FB
S113078000487047002D31014FF4004070474FF48A
S11307907A707047014B1868704700BF4011002001
S11307A0436803B1184722207047704738B50D4697
S11307B00446B0B1012817D0022817D0032803D16A
S11307C00F23EB40DB0704D440F2CD31084800F09E
S11307D09FFE30204443074B1859E84000F00100C5
S11307E038BD40F2FF13ECE71F23EAE7FF23E8E7F5
S11307F03C3C000014C0034038B50D680C462B780F
S1130800022B0CD069792879FFF7D0FFB0FA80F079
S1130810400928702046BDE83840FFF7C6BF38BD00
S113082037B50468012105463A2001F04DF800234C
S113083001226179207902F07FF861792079FFF74C
S1130840B5FFB0FA80F35B092370A379022B15D1AD
S113085000F05CFA2A460B49607900F081FAFF281F
S1130860054603D14F21084800F052FE0123617967
S113087020792A46CDE9003301F0E4FF002003B0DB
S113088030BD00BFF9070000843C000003681878FD
S1130890704710B504682378022B15D0617920794C
S11308A0FFF784FFA279012A15D1003818BF01206F
S11308B04FF6E071638840EA430363F03F039BB261
S11308C08B4202D12270638010BD4FF6DF729342D7
S11308D0F9D10022F6E7002AF6D1B0FA80F04009F7
S11308E02070F1E703681A78022A03D100225A80A3
S11308F0FFF796BF704713B504682378022B10D016
S1130900A379022B0BD10021607900F017FA0023A0
S1130910627920791146CDE9003301F093FF022377
S1130920237002B010BDD0E90003184738B50D4656
S11309300446D8B101281CD002281CD0032803D1B6
S11309400F23EB40DB0704D44FF47F710B4800F016
S1130950DFFD3020012142F21003444304F18044BE
S113096001FA05F504F57034E55038BD40F2FF1383
S1130970E7E71F23E5E7FF23E3E700BF3C3C000074
S113098038B50D460446D8B101281CD002281CD025
S1130990032803D10F23EB40DB0704D440F22B419F
S11309A00B4800F0B5FD3020012141F2100344430F
S11309B004F1804401FA05F504F57034E55038BDBE
S11309C040F2FF13E7E71F23E5E7FF23E3E700BF58
S11309D03C3C000010B5044601213A2000F074FFAD
S11309E0A3782078B3FA83F3042261785B0901F0D9
S11309F0A3FF002010BD034659789B7800780BB9FB
S1130A00FFF794BFFFF7BCBF034659789B78007883
S1130A100BB9FFF7B5BFFFF789BF000038B50478FD
S1130A204578D4B1012C1BD0022C1BD0032C03D14C
S1130A300F23EB40DB0704D440F246410A4800F0A0
S1130A4067FD30220123544343F2100204F1804431
S1130A50AB4004F57034A35038BD40F2FF13E8E70F
S1130A601F23E6E7FF23E4E73C3C000070B504786D
S1130A7005464678D4B1012C1BD0022C1BD0032C84
S1130A8003D10F22F240D30704D440F216410B489D
S1130A9000F03EFD30235C43094A1359F34003F050
S1130AA00100AB780BB980F0010070BD40F2FF1279
S1130AB0E8E71F22E6E7FF22E4E700BF3C3C000032
S1130AC010C0034038B5124B05461B78DBB1E0B1CA
S1130AD001F09BFC0F4A00231146147B54B92B6090
S1130AE001251A0101EB03131D738C5001F093FCD3
S1130AF0204638BD0133082B02F11002EDD101F07C
S1130B008AFC0548F5E70548F3E70548F1E700BF27
S1130B109413002014120020048000F0028000F0DE
S1130B20018000F0154B13B51868002301908DF86F
S1130B30043001F06AFC124B1C7824B101F06BFC08
S1130B40104802B010BD01221A7001F064FC0E4B73
S1130B5001A81C731C7783F82C4083F83C4083F86D
S1130B604C4083F85C4083F86C4083F87C40082355
S1130B708DF8073001F052FF2046E2E7DD3C00002B
S1130B8094130020038000F0141200200A4A08B5D0
S1130B9012785AB107280BD8084A02EB00131B7BC2
S1130BA043B1002101F018FF002008BD0448FCE710
S1130BB00448FAE70448F8E79413002014120020CC
S1130BC0028000F0018000F0078000F00A4A08B5B6
S1130BD012785AB107280BD8084A02EB00131B7B82
S1130BE043B1012101F0F8FE002008BD0448FCE7F0
S1130BF00448FAE70448F8E794130020141200208C
S1130C00028000F0018000F0078000F00D4B1B789B
S1130C1093B1072812D889B10B4B03EB00131B7B4C
S1130C2073B10A4BDA6A012303FA00F010401ABFC9
S1130C3000200B70087070470548704705487047DE
S1130C40054870479413002014120020000004404B
S1130C50028000F0018000F0078000F02DE9F843E5
S1130C60174B1F6D5B6D1F4000D5FEE70126002565
S1130C70144CDFF85480DFF85490374217D02368BF
S1130C80C8F850609BB1A168284601316268A16030
S1130C909847637B012B0AD148B909EB45131A7BAA
S1130CA060F341021A731A7F60F341021A77013527
S1130CB0082D4FEA460604F11004DED1BDE8F8839E
S1130CC0000004401412002000200440941200206C
S1130CD070B5044601250C4E04B970BD94FAA4F312
S1130CE0B3FA83F305FA03F206EB031124EA0204D0
S1130CF04A68002AF0D0D8B20B7B13B189689047B8
S1130D00EAE79047E8E700BF9813002008B51920E8
S1130D1001F084FB28B14FF00072074BC3F8802127
S1130D201A601A2001F07AFB28B14FF08062024B5E
S1130D30C3F880211A6008BD00E100E038B505461B
S1130D400C4601F062FB0022044B03EB05135C60CC
S1130D501A73BDE8384001F05EBB00BF9813002051
S1130D60F8B505460F46164601F04FFB104B05F04B
S1130D70FC02D3F824140023EC1804F003041443F5
S1130D8021FA04FC1CF0010F07D00133042BF3D12A
S1130D90FF2401F040FB2046F8BDFF2CF9D00122CE
S1130DA0044B03EB0413C3E901761A73F1E700BFA4
S1130DB000C0034098130020074BD3F82404D3F851
S1130DC0202403F50053104000F0553020F050204B
S1130DD0C3F82004FFF77CBF00C00340074BD3F8DF
S1130DE02404D3F8202403F50053104000F0AA3063
S1130DF020F0A020C3F82004FFF76ABF00C003401E
S1130E0038B141B1013AB2F5006F044838BF00204F
S1130E107047034870470148704700BF037000F0F3
S1130E20027000F038B50D460446D8B101281CD034
S1130E3002281CD0032803D10F23EB40DB0704D482
S1130E404FF47F710B4800F063FB3020012142F224
S1130E501003444304F1804401FA05F504F57034A9
S1130E60E55038BD40F2FF13E7E71F23E5E7FF2312
S1130E70E3E700BF3C3C000038B50D460446D8B15A
S1130E8001281CD002281CD0032803D10F23EB40D7
S1130E90DB0704D440F22B410B4800F039FB30202F
S1130EA0012141F21003444304F1804401FA05F5A1
S1130EB004F57034E55038BD40F2FF13E7E71F2313
S1130EC0E5E7FF23E3E700BF3C3C0000104930B5F1
S1130ED00B78104A2BB9C2E90033C2E9023301236B
S1130EE00B700C4C0023214651F8045B854208D05A
S1130EF00133042BF8D1002154F8043B1BB942F808
S1130F002100002003E001310429F5D1024830BD5D
S1130F10A815002098150020027000F038B590F84C
S1130F203530022B21D1447F90F82150B4B1012CEB
S1130F3017D0022C17D0032C03D10F23EB40DB076F
S1130F4004D440F2CD310A4800F0E2FA30235C4385
S1130F50084B1859E84000F0010038BD40F2FF1377
S1130F60ECE71F23EAE7FF23E8E70020F5E700BFEB
S1130F703C3C000014C00340002313B51D4A52F842
S1130F80044B94F8211081420ED00133042BF6D186
S1130F9002B010BD0028FBD19DF80730002BF7D01C
S1130FA0A068FFF7F3FDF3E794F83530022BEFD197
S1130FB02046FFF7B3FF637E2076022BE8D194F836
S1130FC0323003F0FF02002BE2D1A0680DF10701DB
S1130FD08DF80720FFF71AFE237E1BB194F83330F7
S1130FE0002BD7D00023A06884F83330FFF7EEFD40
S1130FF0CEE700BF9815002010B50446FFF792FD18
S1131000002104F10800FFF75DFD014620B904F159
S11310100C00FFF757FD00B1004810BD0E7000F042
S113102008B590F8363083B9042203685A619A6986
S11310309207FCD541F21C62102103795B0103F194
S1131040804303F57033995008BD022BFCD100682E
S1131050036CDB074CBF0521062101F03FFB022294
S1131060014BC3F8C020EFE700D403401FB504468A
S11310700B46C07EE17F002B39D00123042201F00E
S11310805BFC0123022294F82010207F01F054FC21
S113109094F83530022B19D10023012294F8211041
S11310A0607F01F049FC0023042294F82210A07F01
S11310B001F042FC012394F8212001931146607F42
S11310C0009301F0BFFB002004B010BD032BFAD144
S11310D00023012294F82110607F01F02DFC0023ED
S11310E0042294F82210A07F01F026FCEBE71A46B4
S11310F0039301F021FC039B94F820101A46207FEF
S113110001F01AFC94F83520039B022A12D11A46E6
S113111094F82110607F01F00FFC039B94F82210D7
S11311201A46A07F01F008FC039B94F82120019348
S11311300123C3E7032AC6D11A4694F82110607F1D
S1131140039301F0F9FB039B1A46CAE7F8B5054679
S11311500E461746FFF754FE00286ED1152001F005
S113116077F90446EA6A93889BB213B195F8323052
S1131170E3B195F83630F3B92B689C6904F00204A6
S11311801CB92846FFF74CFF0024012385F83430AE
S113119095F83630FBB93744BE42286816D18369C6
S11311A09A06FCD54CB300242046F8BD002CDAD0B6
S11311B0FFF754FDD6E7022B02D12B681C6CDDE748
S11311C040F638211E4800F0A3F9DAE716F8011BAF
S11311D001F0E6FEE0E7022BE4D13744B742286889
S11311E006D142F22003026C33EA0202FBD1D9E7B2
S11311F016F8011B01F0A2FAF0E795F836306BB946
S113120042F21C6210212B795B0103F1804303F548
S11312107033995008222B685A61C5E7022BC3D159
S11312202868036CDB074CBF0921214601F056FAFC
S11312300222044BC3F8C020B6E70446B4E700BF5B
S1131240E13C000000E4034010B5044680B190F88E
S113125032302BB9FFF762FE10B9A068FFF796FC95
S1131260002094F832300133DBB284F8323010BD00
S11312700048FCE7027000F010B50446A0B190F8F5
S113128032309BB190F83230012B05D1FFF746FE86
S113129010B9A068FFF79AFC002094F83230013BA3
S11312A0DBB284F8323010BD0148FCE70148FAE7AC
S11312B0027000F0057000F037B590F83550044620
S11312C0022D12D1437E94F82210807F23B9FFF7B8
S11312D0A9FD002003B030BD012B02D1FFF7CCFDE6
S11312E0F7E7237E002BF9D1F1E7012DF1D1037E3D
S11312F073B911238DF80730FFF7A6FF2A4620465D
S11313000DF10701FFF722FF2046FFF7B5FFE0E7E5
S11313101323EFE72DE9F0410446744F88B001AE82
S11313200D460FCF0FC697E8070086E80700002C8C
S113133000F0DA8025B96E4E304608B0BDE8F08181
S11313403C220021204602F059FB00232046A363DF
S1131350FFF7BCFD06460028EED12B7D84F835301E
S11313602B6884F8360023602A7B2271614A9342F9
S113137040F09E802823A3845F4B23614FF4802395
S113138000266361D5E90723A26216805680968001
S113139084F83060E3621E805E809E806B6884F80F
S11313A031600393EB8984F83360ADF814302B8AF1
S11313B00121ADF81230AB7C3A208DF81030EB7C73
S11313C0DFF848818DF8163005238DF8113000F0D0
S11313D07BFA0121A08C00F077FA286801A98DF826
S11313E0046001F0D3FC14222B7B08EB4313C3F8F5
S11313F01C262E7AA87A46EA0042C3F83426697A73
S1131400EA7A41EA0247C3F82C76E676E077217758
S113141084F820206B7D01216377AB7D204684F81E
S11314202130EB7DA3772B7E84F82230FFF71EFE5C
S11314300646002880D100F0E8FF2B7D0746032BE9
S113144041D141F21C6202212B7B08EB431848F87E
S1131450021004212A685B0102F58052D165297EBD
S1131460EA7D03F1804342EA014203F57433C3F891
S11314702826A97D6A7D42EA0142C3F824264FF05A
S1131480FF32286800F500539A642B7D032B0CBFB0
S11314900521042101F01CFC4FF440622B68204616
S11314A05A61FFF7A9FD0646384600F0B4FF43E74A
S11314B0124A93427FF43FAF2923A384104B236144
S11314C04FF4A0235CE7022BD9D194F821000D49F5
S11314D0FFF734FCFFF71AFC4FF400732046238314
S11314E0A676FFF7E9FECAE7074E25E7343D00007C
S11314F0037000F000C00540020004000000064034
S113150002000500790F0000027000F000C00340E3
S1131510FEE74FF04023D3F88420D206FBD4D3F85F
S11315208400C0F38110704738B5124B0546D3F8D8
S113153020310C4603F00303022B0BD0032B0DD0F8
S1131540012B0FD1FFF7CEF8052305B1286004B1B4
S1131550237038BDFFF7FCF80323F6E7FFF710F913
S11315600223F2E7044840F6BE71FFF7D1FF0023DF
S11315701846EAE700800040703D0000F7B50024FB
S1131580114B0194D3F88051074605F00305012D52
S11315900E4607D0022D11D041F2E2010B48FFF7AD
S11315A0B7FF04E0214601A8FFF7BEFF0F240FB1E7
S11315B0019B3B6006B1347003B0F0BDFFF7E0F867
S11315C02C460190F3E700BF00800040703D00000E
S11315D038B5194B0546D3F824310C4603F00703FC
S11315E0013B052B20D8DFE803F0030F171B0B1377
S11315F0FFF778F8052305B1286004B1237038BDDE
S1131600FFF770F80623F6E7FFF7A2F80323F2E7E3
S1131610FFF79EF80423EEE7FFF7B2F80223EAE7A8
S1131620FFF7ACF80723E6E7044840F64651FFF716
S11316306FFF00231846DEE700800040703D000085
S113164038B5124B0546D3F840310C4603F003037A
S1131650022B0BD0032B0DD0012B0FD1FFF794F8E5
S1131660092305B1286004B1237038BDFFF792F84F
S11316700823F6E7FFF78BF80B23F2E7044840F65C
S1131680EC71FFF745FF00231846EAE700800040AD
S1131690703D000038B5154B0546D3F800320C46B2
S11316A003F00703013B032B18D8DFE803F0020A19
S11316B00E12FFF769F8092305B1286004B12370FD
S11316C038BDFFF767F80823F6E7FFF760F80B2348
S11316D0F2E7FFF727F80E23800AEDE7044841F20A
S11316E09811FFF715FF00231846E5E70080004036
S11316F0703D000038B5124B0546D3F840320C4615
S113170003F00303022B0BD0032B0DD0012B0FD1BD
S1131710FFF73AF8092305B1286004B1237038BDF6
S1131720FFF738F80823F6E7FFF731F80B23F2E761
S1131730044841F22B11FFF7EBFE00231846EAE7B9
S113174000800040703D000038B5124B0546D3F8C8
S113175060310C4603F00303022B0BD0032B0DD096
S1131760012B0FD1FFF710F8092305B1286004B14C
S1131770237038BDFFF70EF80823F6E7FFF707F8E4
S11317800B23F2E7044841F21A01FFF7C1FE0023DC
S11317901846EAE700800040703D000010B40F4C8A
S11317A00B46D4F8204204F00304012C0ED0022C82
S11317B010D008B1002101600BB100221A704FF45F
S11317C0576107485DF8044BFFF7A2BE5DF8044B70
S11317D0FFF7AABE5DF8044BFFF732BF008000405C
S11317E0703D0000B0F5207F10B534D009D8B0F5B5
S11317F0007F2AD003D898B1B0F5C07F10D0002460
S113180021E0B0F5607FFAD1154BD3F88030C3F3F3
S113181001149B0617D5032C15D04FF41D710FE04E
S11318200F4B1C6F230B13F00E0FC4F303340AD0B9
S1131830032C08D0072C06D00F2C04D04FF41971B8
S11318400848FFF765FE601C10BD054BD3F89040B7
S1131850C4F30464F7E7024B1C6FC4F38024F2E77B
S113186000800040703D00004FF400320F4B70B513
S11318709A66064600200D46FFF7B4FF41F6713222
S11318800B4B7043DC690B49DA639A68884204F4B1
S1131890803422F4401203D9012D18BF42F480127F
S11318A09A600CB10022DA6370BD00BF0090004062
S11318B000000340005A620208B5FEF745FFBDE888
S11318C008400021FFF7D0BF70B5460904460D4615
S11318D00FD140F205310D48FFF71AFE334604F0EC
S11318E01F0485B103F58053012000FA04F41C6041
S11318F070BD012E05D0064B064A022E18BF1346B2
S1131900EDE7054BEBE703F50053EDE7703D000011
S1131910688000406082004064800040002330B54D
S1131920802885B00446029375D02BD8002878D03F
S1131930A0F12004A3B2412B32D8412C30D8DFE8E7
S113194004F070732F73868686867373903FA76541
S11319503F7373732F2F2F2F2F2F8B57737373B1E5
S1131960AC732F2F2F2F2F2F2F2F2F2F2F2F2F7081
S11319702F707070862F2F2F2F2F2F2F2F2F2F2F59
S11319802F2F7070B0F5806F61D024D8B0F5007F30
S113199054D00BD8B0F5807F68D0B0F5C07F40D06C
S11319A040F25A414248FFF7B3FD37E0B0F5607F9B
S11319B044D0F5D8B0F5207F36D0B0F5407FEFD1D4
S11319C0FEF7B0FE04464FF42070FFF70BFFB4FBA4
S11319D0F0F0400821E0B0F5C06F59D00DD8B0F553
S11319E0A06F39D0B0F5B06F3BD0B0F5906FD7D1C0
S11319F0002102A8FFF7ECFD10E0B0F5E06F4CD039
S1131A00B0F5F06F4ED0B0F5D06FC9D1002102A867
S1131A10FFF740FE02E0FEF76BFE0290029805B06D
S1131A2030BDFEF77FFEF8E7FEF77CFE04464FF478
S1131A302070FFF7D7FEB4FBF0F0EEE7FEF758FE98
S1131A4005462046FFF7CEFEB5FBF0F0E5E70021A2
S1131A5002A8FFF769FDE1E7002102A8FFF79EFE57
S1131A60DCE7002102A8FFF789FDD7E703934FF0D5
S1131A70E0231B695B0705D5FEF754FE0390039B27
S1131A800293CBE70DF1070103A8FFF7D9FDF6E7B1
S1131A90002102A8FFF7D4FDC0E7002102A8FFF748
S1131AA029FEBBE7002102A8FFF74EFEB6E700BF00
S1131AB0703D0000002307B5B0F5807F8DF802303B
S1131AC000F0888028D8382800F0A8800CD8243862
S1131AD083B2092B10D809280ED8DFE800F07575F9
S1131AE075750D0D6B0D378F52286DD007D83D28B5
S1131AF03CD03E2800F0988040F2365156E08028D1
S1131B00FAD14C4B1B6F03F00703013B032B4BD85B
S1131B10DFE803F048444280B0F5D06F6ED01BD8A4
S1131B20B0F5A06F7AD00BD8B0F5806F4CD0B0F57B
S1131B30906FE1D100200DF10201FFF749FD3EE075
S1131B40B0F5B06F36D0B0F5C06FD5D100200DF12F
S1131B500201FFF775FD32E0B0F5006FEAD00BD853
S1131B60B0F5E06F60D0B0F5F06FC5D100200DF195
S1131B700201FFF7E9FD22E0B0F5086FBCD12D4B5F
S1131B80D3F8003103F00303022B3DD0032B3FD0E5
S1131B90012B41D1FEF7DCFD032300E005238DF882
S1131BA002300CE00223FAE740F28C412248FFF7AE
S1131BB0AFFC04E000200DF10201FFF7DFFC9DF80B
S1131BC0020003B05DF804FB00200DF10201FFF7F1
S1131BD0ABFCF4E701934FF0E0231B695B0707D5E7
S1131BE0FEF7A0FD0C238DF803309DF80330D6E7F3
S1131BF00DF1030101A8FFF723FDF6E700200DF125
S1131C000201FFF747FDDAE7FEF7C4FD0823C6E744
S1131C10FEF7B4FD0723C2E70123C0E700200DF15E
S1131C200201FFF7BBFDCAE700200DF10201FFF737
S1131C3061FDC4E700800040703D000070B503788A
S1131C4004460F2B04D940F621216B48FFF760FCB2
S1131C5063780F2B04D940F624216748FFF758FC1A
S1131C60A3780F2B04D940F627216348FFF750FCD3
S1131C70E3780F2B04D940F62A215F48FFF748FC8C
S1131C8023790F2B04D940F62D215B48FFF740FC44
S1131C9063793F2B04D94FF423615748FFF738FC8D
S1131CA0A3793F2B04D940F633215348FFF730FC86
S1131CB0E379032B04D940F636214F48FFF728FC7B
S1131CC0237A032B04D940F639214B48FFF720FC33
S1131CD0637B012B04D940F63C214748FFF718FCED
S1131CE08020FFF7E7FE03287CD04FF40022434B0B
S1131CF043495A6645F60E030222C1F88030414B2F
S1131D009A62012203F580539A628A6D12F480323A
S1131D10FBD1637820781B0543EA0063A079257C16
S1131D200343E078667C43EA0043207943EA0033C6
S1131D30607943EA80130B618B69E07A03F0004316
S1131D400343E07943EA8063207A43EA0063607ADC
S1131D5043EA0043A07A43EA00238B61637B096A68
S1131D60002B18BF0822207B21F00D0143EA010358
S1131D7043EA800342EA0302214B1A62A27B4FEA40
S1131D80421230D1986AE17B20F0330042EA01121A
S1131D90024342F001029A621B4A996D32EA010140
S1131DA0FBD1022217498A621A659A6D5200FCD44B
S1131DB01869A27820F4700040EA02504FF0004203
S1131DC01861104B9A611DB9022203F580539A627F
S1131DD016B901220D4B9A62A37C1BB1084B0C4A25
S1131DE0C3F8802070BD996A21F0330131430A435E
S1131DF042EA4502EFE700BF703D0000009000405A
S1131E0000C0004000D000400300014000E000405A
S1131E10F1A7FFFF014B93F900007047A9150020BB
S1131E2010B583780446072B04D940F69F312A481D
S1131E30FFF76EFBE378032B04D940F6A131264863
S1131E40FFF766FB2378032B04D940F6A33122481D
S1131E50FFF75EFB94F90130002B04DA40F6A5315C
S1131E601D48FFF755FB4FF480011C4A6378516607
S1131E704FF4D151022002F5B832516218494F2B68
S1131E8048604FF0010028BF4F2301F5805148609E
S1131E901169C903FCD4217843EA01235361E3782F
S1131EA0A1781B0143EA012361790B43217943EAB9
S1131EB041039360E379A1791B0143EA4113617AF9
S1131EC00B43217A43EA41035360A37A13B16FF4BD
S1131ED0D153536210BD00BF703D0000009000401C
S1131EE000100240014B1880704700BF44110020CD
S1131EF00029CCBF01210021FFF7B6BCB0F5207F3B
S1131F0010B55FD00ED8B0F5007F49D003D800B328
S1131F10B0F5C07F1DD04FF43A71BDE81040314890
S1131F20FFF7F6BAB0F5607FF5D14C1E012C06D947
S1131F30042904D040F2CD212A48FFF7E9FA2A4ABD
S1131F40D2F8803023F0300343EA0413C2F880301F
S1131F5010BD102901F1FF3404D8244B23FA01F1F8
S1131F60CB0704D440F2A3211E48FFF7D1FAFFF7B0
S1131F70A3FC00F03DF81C4A136F23F4704343EABA
S1131F8004331367FEF7CEFB0446FFF7C2FAC0F131
S1131F9002012046FFF7ACFFBDE8104000F02EB868
S1131FA04C1E1F2C04D94FF437710E48FFF7B0FABA
S1131FB00D4BD3F8901021F0F85141EA0461C3F8B5
S1131FC09010C5E74C1E012C04D940F2E2210548CB
S1131FD0FFF79EFA044B196F21F4806141EA8421D2
S1131FE01967B5E7703D000000800040160101004C
S1131FF002214FF42070FFF781BF000008B54FF4B1
S1132000C070FFF78BFCBDE80840044988428CBFD0
S1132010022101214FF42070FFF770BF80F0FA0213
S1132020B0F5807F70B50C4600F006812CD83828B6
S113203000F09E8111D8243883B2092B16D80928C0
S113204014D8DFE810F0DE00DE00DE00DE0013004E
S11320501300C900130049004D01522800F0D1803B
S113206007D83D2853D03E2800F0998140F6250139
S11320701CE18028FAD18B1E052B00F2A280DFE838
S113208003F09D8EA0A8A067B0F5D06F00F0288162
S113209032D8B0F5A06F00F06B8116D8B0F5806F20
S11320A000F0AF80B0F5906FE0D1023CE4B2052CB3
S11320B000F20F81A54B195DA54AD2F8243123F013
S11320C007030B43C2F8243168E0B0F5B06F00F0A9
S11320D08380B0F5C06FC9D1083CE4B2032C00F290
S11320E0EA809C4B195D9A4AD2F8403123F00303ED
S11320F00B43C2F8403151E0B0F5006FD5D016D88B
S1132100B0F5E06F00F04B81B0F5F06FAED1083C54
S1132110E4B2032C00F2D6808F4B195D8C4AD2F8BE
S1132120603123F003030B43C2F8603136E0B0F5AD
S1132130086F9BD14C1E072C00F2FE80DFE814F0E0
S11321400101FC000301FC00FC00FC00FA00F000AB
S1132150002504260121022000F0BAF9FFF7ACFBA8
S1132160FFF746FF7A4A136F23F0070333431367DD
S1132170FEF7D8FA0646FFF7CCF9C0F10201304663
S1132180FFF7B6FE0121002000F0FAF9FFF736FF51
S113219025B9032C02D10122704B9A6270BD4FF411
S11321A000226F4B03265A66012203F540539D6AB1
S11321B003F58053C5F340059A62CBE70025012659
S11321C0C8E7002540F277516648FFF7A1F92E468B
S11321D0C0E700250226BDE7022C07D00F2C0ED045
S11321E040F2BC515F48FFF793F90024584AD2F8F3
S11321F0803123F003031C43C2F88041CEE701245D
S1132200F4E7032C12D0052C12D0022C12D040F289
S1132210F3515448FFF77CF900224D49D1F820319D
S113222023F003031343C1F82031B7E70222F4E794
S11322300122F2E70322F0E7A1F10804082C33D8C5
S1132240DFE804F0050532051C32323205004FF494
S113225080323F4B4449586E03F580535A660B6AEB
S113226043F001030B62C1035CBF404B5A664FF05D
S1132270E022136923F0040313618FE74FF48032E3
S1132280334B3949586E03F580535A660B6A23F071
S113229001030B62C3035CBF344B5A664FF0E02268
S11322A0136943F00403E7E740F21B61BDE87040A3
S11322B02C48FFF72DB940F237612A48FFF728F977
S11322C0002110E740F252612648FFF721F900216E
S11322D024E740F277612348FFF71AF90021EBE67F
S11322E0083C062C13D8DFE804F00419190E121266
S11322F0100002221649D1F8003223F007031343D9
S1132300C1F800324AE70322F4E70422F2E740F27C
S113231097611448FFF7FCF80022EBE70122E9E794
S113232002220B49D1F8003123F003031343C1F80F
S1132330003133E70322F4E740F2D3610948FFF7A1
S1132340E7F80022EDE70122EBE700BFBB3D000008
S113235000800040B73D0000B73D000000E00040B1
S113236000900040703D000000C0074000A0004005
S11323700F2C10D0102C10D040F219711348FFF715
S1132380C7F800221249D1F8203223F00303134383
S1132390C1F8203202E70122F4E70222F2E7083C06
S11323A0E4B2032C0AD80B4B195D094AD2F8403227
S11323B023F003030B43C2F84032EFE640F273719B
S11323C00248FFF7A5F80021EFE700BF703D0000C9
S11323D000800040B73D00000028ABBF00F1604022
S11323E0054B00F5614000F00F00ACBF90F800030E
S11323F0185C0009704700BF14ED00E0EFF3108093
S113240072B6704700B962B67047EFF3118030239B
S113241083F31188704780F31188704738B5C5B2CB
S11324203F2D044604D940F21F310748FFF770F8E6
S1132430064B640953F8240005F01F05E840C04327
S113244000F0010038BD00BFC13D000000E100E024
S113245000F10C03DBB24B2B10B5044604D940F257
S1132460AD211448FFF754F8EFF31083DB0702D5CE
S11324700122104610BD2046FFF7D0FF0246002877
S1132480F6D12046FFF7A8FF0146EFF3118313B1FD
S1132490B0EB131FECD2084B5B68C3F30803002BAB
S11324A0E7D0103B58B2FFF797FF88428CBF002259
S11324B00122DEE7C13D000000ED00E04FF04022C4
S11324C0D36E017923F030030B43D3667047704712
S11324D02DE9F0414FF040230446D3F88420D00680
S11324E0FBD4D3F88430C3F381139C423FD0FEF76E
S11324F0FFF8012C05460BD11E4B984204D940F23B
S1132500F9611D48FFF704F801212846FFF7F0FCA4
S1132510FFF774FF4FF00072184B07465A662046C7
S1132520FFF7D5FF4FF480634FF04026621E9340BF
S1132530DFF844803367736E9A0103D4D6F884308D
S11325409B060AD53846FFF75DFF022C0FD12846BB
S1132550BDE8F0410021FFF7CBBCD6F884309906E2
S1132560E9D540F207714046FEF7D2FFE3E7BDE844
S1132570F08100BF005A6202093E00000060004082
S113258007B518B90191FEF7B3F80199064B1B780A
S113259043B1064B984205D8012003B05DF804EB23
S11325A0FFF796BF0220F8E7AA150020005A62023E
S11325B04FF0004210B501244AF6CD31144B5A664F
S11325C0144A03F50B2354605A6C1964224078B9F9
S11325D0996811F0010F104903D08C60D86AC007C4
S11325E0FCD501234B6012B10C4B0D4A1A6410BD8B
S11325F0D96A0907FCD42021074B59620121A3F5AC
S11326008053996005494B6A9B06FCD5EBE700BFF4
S1132610009000400050094000600940004009401B
S11326203254FFFF4FF0004238B5184B184C5A662D
S1132630012203F50C235A604AF6CD33656C2364FA
S113264043781540934013434FF04022D363A3686B
S1132650827823F0740343EA0213C278002A14BF79
S1132660042200221343A3600279837943EA0223FC
S113267023614279C37943EA022363610078FFF757
S113268097FF0DB1034B2364012038BD0090004037
S1132690004009403254FFFFC36C0B42FCD1704729
S11326A008B543680246DB0714D50A2350210363A7
S11326B0FFF7F2FF136C9907FCD1936A01211046CE
S11326C09362FFF7E9FF136C1B0604D4012302F5A0
S11326D00052536008BD536BF5E7000038B5154B45
S11326E0044698420D4604D040F25D111248FEF7AC
S11326F00FFF25B92046BDE83840FFF7D1BF0122BE
S113270004F580535A6040F2FF71204605F00F0231
S1132710FFF7C2FF22637821FFF7BEFF05F0010334
S11327206A0748BF43F00203226C02F003029A4294
S1132730FAD138BD0000034A503E0000036C5B062A
S1132740FCD5C163704700001F2970B504460D46CF
S1132750164603D991210748FEF7DAFE36B104F58F
S11327608054012101FA05F5256070BD04F500547B
S1132770F7E700BF9A3E000038B50D460446D8B1CD
S113278001281CD002281CD0032803D10F23EB40BE
S1132790DB0704D440F22B410B48FEF7B9FE30208E
S11327A0012141F21003444304F1804401FA05F588
S11327B004F57034E55038BD40F2FF13E7E71F23FA
S11327C0E5E7FF23E3E700BF3C3C000038B50D46D6
S11327D00446D8B101281CD002281CD0032803D1F8
S11327E00F23EB40DB0704D44FF47F710B48FEF753
S11327F08FFE3020012142F21003444304F180444F
S113280001FA05F504F57034E55038BD40F2FF13C4
S1132810E7E71F23E5E7FF23E3E700BF3C3C0000B5
S113282070B5054614460E46FFF7E8FD296881EAAF
S1132830040202EA06044C402C60BDE87040FFF735
S1132840E1BD00002DE9F3470D4614461E468146BE
S11328509DF828809DF82C70002843D0012844D08E
S1132860022844D0032803D10F23EB40DB0703D411
S1132870BF212848FEF74CFE85EA040333F0030326
S113288003D0C1212348FEF743FE072C4FF0030178
S113289005F003052DD84FEA840A01FA0AF11E480F
S11328A009FA0AF20191FFF7BBFF01991B4805FAE7
S11328B00AF2FFF7B5FF324621461948FFF744FFF5
S11328C0424621461748FFF73FFF0123164AA3401B
S11328D0C2F8203421463A46144802B0BDE8F04715
S11328E0FFF732BF40F2FF13BFE71F23BDE7FF230B
S11328F0BBE7A4F1080A4FEA8A0A01FA0AF10C4874
S113290009FA0AF20191FFF78BFF0199094805FAC8
S11329100AF2CEE7E13E000000C4034008C40340CD
S113292010C4034014C4034000E0034024C4034023
S113293004C403400CC40340F8B50D4616461F46B4
S1132940044658B301282CD002282CD0032803D1E4
S11329500F22EA40D30704D44FF4B0711B48FEF7AA
S1132960D7FD26B129462046FFB1FFF705FF3023E6
S1132970072D4FF00F0104FB03F319D8A80006FA42
S113298000F2814012481844FFF74AFFE6B929468D
S11329902046AFB1BDE8F840FFF7EEBE40F2FF12AB
S11329A0D7E71F22D5E7FF22D3E7FFF70FFFDEE7C4
S11329B0A5F10800800006FA00F281400548E2E72C
S11329C0BDE8F840FFF702BFF8BD00BFE13E0000DC
S11329D004C003400CC00340072838B504460D4624
S11329E003DD77210948FEF793FD1F2C03D99121BC
S11329F00748FEF78DFD074B074A0120002D18BF3D
S1132A00134600FA04F41C6038BD00BF293F0000DF
S1132A109A3E0000401004404020044010B5044693
S1132A2018B991211F48FEF773FD23781B0613F094
S1132A30604F03D092211B48FEF76AFDE3780F2B09
S1132A4003D9A3211748FEF763FD01212020FEF7D7
S1132A503BFF01212120FEF737FF0122124B5A6070
S1132A60227812069A606178A27842EA01429A6159
S1132A70FF229A6200229A631A644FF000425A6558
S1132A804FF0FF324FF4001103F500531A65074A63
S1132A90C2F88011E3781B01DBB282F815331160B0
S1132AA010BD00BF293F00000000044000E100E029
S1132AB04FF090435A6812B19A6A002AFAD17047CB
S1132AC0022838B505460C4603D94C210C48FEF7BC
S1132AD01FFDE378627821785B0143EA820322795F
S1132AE00B4343EA02130C226A4302F1904213633C
S1132AF0012902BFA278034B43F8252038BD00BF4B
S1132B00713F0000E880034008B54FF090435A68D5
S1132B1002B960B15B680BB1FFF7CAFF4FF0904197
S1132B2030B10120074B5860FFF7C2FFC86008BDF1
S1132B30FFF7BEFF0223CB60FFF7BAFF0122024B6F
S1132B405A60F4E700100048002000484FF090431A
S1132B505B6870B50BB1FFF7ABFF0121104B4578F3
S1132B60596083780679002BC37814BF02240024AB
S1132B70002B14BF042200224379DB0043EA06132E
S1132B802B43234313434FF090429360054B59600A
S1132B900378002B14BF0B460223D36070BD00BF23
S1132BA000200048001000482DE9F04180460E4600
S1132BB01F46154622B94FF4A1713148FEF7A8FC0F
S1132BC026B94FF42070FEF7A9FE0646402F2AD0FE
S1132BD009D8A7B1202F1CD040F28911BDE8F041DB
S1132BE02748FEF795BC602FF6D1B5EB960F04D9B4
S1132BF040F283112248FEF78BFC04241DE0B5EB60
S1132C00161F04D94FF4BA711D48FEF781FC102435
S1132C1013E0B5EBD60F04D940F279111848FEF74A
S1132C2077FC082409E00624B6FBF4F3AB4204D293
S1132C304FF4BF711248FEF76BFC6C43610801EB63
S1132C404616B6FBF4F40F4E203CB6EBC40F4FEA25
S1132C50C40504D24FF4D0710948FEF759FCD8F8E2
S1132C600830354023F06003C8F80830D8F808303D
S1132C701F43C8F80870C8F81C50BDE8F08100BFB5
S1132C80B93F0000F8FF7F0070B506460C461546B4
S1132C9022B94FF422710C48FEF73AFC24B94FF4E0
S1132CA02070FEF73BFE04466D00013CB4FBF5F4D6
S1132CB0064B250213EA042304D040F2A52102485E
S1132CC0FEF726FCF56170BDB93F0000070080FFE8
S1132CD038B50E4B044698420D4608D003F58043A0
S1132CE0984204D040F2BE210948FEF711FC0122AB
S1132CF004F580535A60EB43934003F00A03636185
S1132D00656115B904F50054626038BD00C0054022
S1132D10B93F0000194B10B59842044608D003F59A
S1132D208043984204D040F234411548FEF7F0FB4A
S1132D30012204F580535A6040F6AA6341F2050269
S1132D40636100230F49A360E365E26004F5005268
S1132D502361E361E36491640849A3658C4202D072
S1132D600948844207D18C42236502D0064B9C4219
S1132D7001D1002363650123536010BD00C00540E9
S1132D80B93F0000FFFF010000000640444B70B54E
S1132D90984204460D4608D003F58043984204D077
S1132DA040F2EF213F48FEF7B3FB2046FFF7B2FFA6
S1132DB0012304F580567360AB7C1BB1A36843F018
S1132DC08043A360EB7C5BB1354A2B7D944245D1B3
S1132DD0A2F51032C2F88C31E36D43F08003E36551
S1132DE02A8A6B7B20461343EA891343E3602B7BD7
S1132DF0D5E90112FFF7D8FE6B7D1BB1A36843F43C
S1132E008033A360AB7D1BB1A36843F40043A3608C
S1132E10EB7D2A7E1B07120502F4E00203F0E04377
S1132E201343A365697E1E4A8B1E012B1E4B1FD8BC
S1132E3094421BD002F5804294420CBF01224FF011
S1132E40FF3203EB4213022041F21C620329985023
S1132E5020D10423F3652B78636170BD134A944237
S1132E6004BFA2F52032C2F89C31B5E70022E8E79E
S1132E7094420DD00D4A94420CBF01224FF0FF3210
S1132E8003EB4213022042F21C6201299850DFE74F
S1132E900022F5E7042204F50053DA65DBE700BFFE
S1132EA000C00540B93F000000C0034000000640D8
S1132EB038B5334B044698420D4608D003F5804399
S1132EC0984204D040F25B312E48FEF721FB2046A5
S1132ED0FFF720FF0122A97B04F580535A602A8A58
S1132EE0A368002914BF4FF48061002142F001025D
S1132EF013432A7D0B43002A14BF4FF000520022D3
S1132F00A360A3681343A360AB7C5BB11C4AEB7C56
S1132F1094422DD1A2F51032C2F88C31E36D43F006
S1132F208003E3652B7B2046D5E9011243F48053EB
S1132F30E360FFF7A9FE6B7B0BB1102363616B7D2C
S1132F401BB1A36843F48033A360AB7D1BB1A368BA
S1132F5043F40043A360EB7D2A7E1B07120503F0B4
S1132F60E04302F4E0021343A3652B78636138BDA8
S1132F70054A944204BFA2F52032C2F89C31CDE741
S1132F8000C00540B93F00000000064083695A06AE
S1132F90FCD5C16383699B06FCD5406AC0B2704707
S1132FA083695B06FCD5C1637047000007B56B46B7
S1132FB0054A1068516803C36846FFF733FB0020D5
S1132FC003B05DF804FB00BF024000004FF0402254
S1132FD013B50024536F684643F00103536700940C
S1132FE08DF80440FFF76AFA204602B010BD0000D5
S1132FF070B586B001AA1546184B03F110061446A5
S113300018685968083303C4B3422246F7D11988B3
S11330109B782180A370124BD3F84C21120314D453
S1133020D3F85041E4B28DF80E40FEF7F3FE20448D
S113303080F308008DF80D000A48FDF78FFB284641
S1133040FEF7FCFD002006B070BD074B1C884FF650
S1133050FF739C4208BF8C24E5E700BF0A400000D0
S11330600080E00F00F049020001E00F1FB50B4A99
S113307001AB1068516803C31189927A19809A7060
S11330803F2301A88DF80530FEF7CAFE6420FEF741
S113309029FF002005B05DF804FB00BF1D400000BF
S11330A06FF00402502110B50A480B4C12F0800F47
S11330B0D3B21BBF03F00F03043BA3181B1802F188
S11330C001020CBF83F800131976402AEED10020C8
S11330D010BD00BF00ED00E000E100E030B50F4C92
S11330E041612368ABB92060836011E0891A9A6852
S11330F01D4641612AB113465A698A42F6D955B12F
S11331001A461346A860836013B15A69511A59616B
S113311030BD0025F0E72060F5E700BFC0150020B2
S113312010B500F07DF90A4C0A4B19682368C31ADC
S113313001B10BB9206010BD4A699A423ABF9B1A8B
S11331400022D21A4A6128BF00238968F0E700BF31
S1133150AC150020C015002038B5134D2B685B69F1
S113316093B1124A022014681C4400F08DF92046E1
S113317000F05EF900230E492A680B70D08880079E
S113318009D501230B7038BD022000F07DF902201F
S113319000F09EF9EEE79268002AF4D050690344E7
S11331A0012BEBD9EFE700BFC0150020AC150020C0
S11331B0B415002000220C490B687BB183420AD16C
S11331C083687AB1936083681BB15A6941690A4480
S11331D05A61002070471A469B68EEE70028EFD03A
S11331E0022070470B60EEE7C015002070B5FFF7B2
S11331F00CF9144E05463478FCB9134B1C60134B80
S11332001C60134B1C8000F0C7F8012000F03CF94F
S113321000F080F90F4B0246186020B92846FFF7EA
S1133220FAF8232070BD234640F2E7310A4800F043
S11332301DFA0A4B1860012333702846FFF7EBF898
S11332400020EFE7AB150020C0150020AC150020CE
S1133250B6150020BC15002018FCFFFFB015002097
S1133260C2072DE9F84F04460BD5464A13880133AB
S11332709BB21380FFF754FF434B1B680BB1FFF75E
S11332806BFFA3077CD5FFF7C0F84FF0000A054693
S11332905646FFF745FFD0463B4FDFF8F4903C68B5
S11332A00CB163698BB10022384B012E1A7003D123
S11332B0BAF1020F08BF1E70002C51D0FFF74CFF6B
S11332C02846BDE8F84FFFF7A6B823461A792179B6
S11332D0914288BF1C469B6813B15A69002AF5D0F5
S11332E02846FFF798F8D4F810A0BAF1000F3BD0A5
S11332F000F096F8A269851AEB17AA4578EB030348
S113330033DA236913440122A3612369D3B1CAB90F
S1133310EB17BAEB050563EB4303002B04DA40F229
S113332002414846FEF7F4F8FFF76FF88246294653
S11333302046FFF7D3FEA369226950461344A361D4
S1133340FFF769F8E368B4F806A0013613B1204624
S113335021689847FFF759F80546FFF7E1FE9EE715
S1133360022000F09DF8ABE75546FFF74EF8834680
S11333702046FFF71FFF5846FFF74DF80022C4E729
S1133380BDE8F88FB6150020C0150020B815002040
S113339028400000002070471FB500241D4B012168
S11333A018689A880290D3F806009B7A00903E2011
S11333B0ADF80C208DF80430FEF786FA8DF808403D
S11333C0FFF7E8FF8DF80C0002A8FFF7BFFB694682
S11333D001208DF80040FFF773FB4FF0904240F25C
S11333E0FF31936923F47F7323F0030393610A4B42
S11333F05961936A13F00803FBD113620120FFF7AC
S113340083FB4FF48052054BC3F880211A6004B04B
S113341010BD00BF834000000020004800E100E030
S11334204FF090439A6A1207FCD4186A7047000060
S11334304FF09042936A1907FCD4136A116C5269D5
S1133440520604D4CA1A032A01D88B420ED1C21AD6
S1133450022A98BFD81CB0F1FF3F38BF01384FF0A3
S1133460904318649A6942F040029A61054A1378BD
S11334703BB14FF09041CB6B43F00203CB6300238D
S1133480137070474611002082074FF0904200F0FD
S11334900103916948BF43F040030B4393617047B4
S11334A0820700F001030AD50121084A43F04003D2
S11334B011704FF09041CA6B22F00302CA634FF0BF
S11334C090418A6922EA03038B6170474611002008
S11334D0830742BF4022014B5A61704700100048E5
S11334E010B5FEF792FF4FF0904304465B695A060D
S11334F0074A03F0010003F0510348BF40F0020003
S11335005361FFF7ADFE2046BDE81040FEF783BFD0
S11335100020004808B53E20FEF700FA0346FFF7F6
S113352039FF23FA00F008BD08B5FCF771FFFCF77A
S11335309FFFFCF7A8FFFCF7ADFFBDE80840FCF7D0
S1133540AABF08B5FCF7A8FFFCF7A7FFFCF7A6FF86
S1133550BDE80840FCF7A3BF10B50446FDF7E2F848
S11335604FF47A729042B0FBF2F105D23621BDE8F5
S113357010400C48FDF7CCBF0B4BB3FBF1F30B49E8
S1133580884201D93C21F2E702FB04F0B0FBF3F0DE
S1133590022806D9BDE810400323B0FBF3F000F085
S11335A007B810BD8E40000040420F00E7CD9A3BA3
S11335B0013800D0FCE7704700F041B81022014BFD
S11335C01A61704700D003401022014B1A61704702
S11335D000E003401022014B1A61704700F00340E1
S11335E0034B586C6FEAD00000F00100704700BF35
S11335F000C00340034B9A695206FCD5D8630120EE
S1133600704700BF00000640024B9869C0F3C01029
S1133610704700BF00000640034B9A691206FCD5B0
S11336205B6A0370012070470000064008B5411E24
S113363011F8010F00B908BDFFF7DCFFF8E74FF000
S113364090435A6812B19A6A002AFAD10122DA60C8
S113365070474FF090439A6A1207FCD4186A704777
S113366008447047401AC00F7047000053B94AB964
S1133670002908BF00281CBF4FF0FF314FF0FF3076
S113368000F082B9ADF1080C6DE904CE00F006F843
S1133690DDF804E0DDE9022304B070472DE9F04FC2
S11336A0099D04460F46002B48D18A42944661D9AD
S11336B0B2FA82F343B1C3F120019F4002FA03FC42
S11336C09C4020FA01F10F434FEA1C411FFA8CFE83
S11336D0220CB7FBF1F601FB167706FB0EF042EA6B
S11336E00742904208D91CEB020206F1FF3702D2CE
S11336F0904200F237813E46121AA4B2B2FBF1F0B6
S113370001FB102200FB0EFE44EA0244A64508D940
S11337101CEB040400F1FF3202D2A64500F21C8126
S1133720104640EA0640A4EB0E0400261DB1DC401E
S11337300023C5E900433146BDE8F08F8B4209D927
S1133740002D00F0FD800026C5E900013046314619
S1133750BDE8F08FB3FA83F6002E4BD18B42C0F054
S1133760F280824240F2EF803046002DE3D0C5E97A
S11337700047E0E702B9FFDEB2FA82F3002B40F023
S11337809D80891A4FEA124E97B20126200CB1FB94
S1133790FEF20EFB121140EA014107FB02F08842DF
S11337A00FD91CEB010102F1FF382CBF4FF00109C6
S11337B04FF00009884203D9B9F1000F00F0CF801F
S11337C04246091AA4B2B1FBFEF00EFB101100FB35
S11337D007F744EA0144A74208D91CEB040400F1AA
S11337E0FF3102D2A74200F2B4800846E41B40EA4B
S11337F002409BE7C6F12007B34001FA06F422FA1F
S113380007FCF940B2404CEA030C20FA07F34FEAF4
S11338101C491C431FFA8CFE00FA06F3200CB1FB72
S1133820F9F809FB181140EA014108FB0EF088423F
S11338300FD91CEB010108F1FF3A2CBF4FF0010B2B
S11338404FF0000B884203D9BBF1000F00F08D80CC
S1133850D046091AA4B2B1FBF9F009FB101100FB20
S11338600EFE44EA01418E4507D91CEB010100F12B
S1133870FF3401D28E457FD8204640EA0840A1EBB0
S11338800E01A0FB029841454C46C64602D306D120
S11338904B4504D20138B9EB020468EB0C0E002D41
S11338A070D01A1B61EB0E0122FA06F301FA07F736
S11338B0F14000261F43C5E900713CE702FA03FC0E
S11338C0C3F1200001FA03F221FA00F64FEA1C4E7C
S11338D024FA00F11FFA8CF79C401143B6FBFEF06A
S11338E00A0C0EFB106642EA064200FB07F69642FB
S11338F00ED91CEB020200F1FF382CBF4FF0010976
S11339004FF00009964202D9B9F1000F31D0404678
S1133910921B89B2B2FBFEF60EFB162241EA02416B
S113392006FB07F28A4207D91CEB010106F1FF38B6
S113393001D28A4223D84646891A46EA004625E738
S11339402E462846F7E6841A61EB030301201F463E
S11339500BE76444023849E764440238E1E6023A7A
S113396061442EE7023E6244C6E6A8F102086144BF
S11339706FE702386244CBE7023861447DE7023ED8
S11339806144D9E72E46D6E6704700BF08B5074B19
S1133990044613B1002100E000BF054B1868836A98
S11339A003B19847204600F031F800BF0000000042
S11339B0E440000070B50D4D00260D4C641BA410AE
S11339C0A64209D10B4D00260B4C00F021F8641BD4
S11339D0A410A64205D170BD55F8043B01369847A2
S11339E0EEE755F8043B01369847F2E7A8110020AA
S11339F0A8110020A8110020AC11002002440346A5
S1133A00934200D1704703F8011BF9E7FEE700BFBA
S1133A10F8B500BFF8BC08BC9E467047F8B500BFB7
S1133A20F8BC08BC9E4670470A2323232323232380
S1133A302323230A746573745F7374646273703A26
S1133A4020657865726369736520746865206D7597
S1133A505F73746462737020415049000A54797032
S1133A6065203020746F207475726E206F66662036
S1133A704C45442C203120746F207475726E206F75
S1133A806E2C203220746F20746F67676C652C2055
S1133A903C73706163653E20746F20616476616E6F
S1133AA0636520746F206E65787420746573742E5A
S1133AB0000A636D643A20000A6D755F7374646272
S1133AC073705F73657269616C5F72785F62797439
S1133AD0652829206661696C6564202D2D20717527
S1133AE0697474696E67000A556E7265636F676EF8
S1133AF0697A656420636F6D6D616E642027000AC6
S1133B00507265737320627574746F6E20746F20C5
S1133B107475726E206F6E204C45442C2072656C57
S1133B206561736520627574746F6E20746F2074A0
S1133B3075726E206F66662C203C73706163653EFF
S1133B4020746F20616476616E636520746F206EEB
S1133B5065787420746573743A20000A576174633D
S1133B606820666F72206D65737361676573206F7B
S1133B706E636520706572207365636F6E642E20BA
S1133B802054797065203C73706163653E20746FC6
S1133B9020717569743A200000100020210800008B
S1133BA093080000E5080000F70800008D080000F5
S1133BB008100020D5090000F7090000090A0000D8
S1133BC01D0A00006D0A0000433A2F557365727395
S1133BD02F722F53696D706C6963697479537475AE
S1133BE064696F2F53444B732F6765636B6F5F7307
S1133BF0646B2F68617264776172652F626F6172A2
S1133C00642F7372632F736C5F626F6172645F639E
S1133C106F6E74726F6C5F6770696F2E6300000063
S1133C20050000000000000040420F0005010000F4
S1133C30000000000000000000000000633A5C7512
S1133C40736572735C725C73696D706C69636974BB
S1133C507973747564696F5C73646B735C676563B3
S1133C606B6F5F73646B5C706C6174666F726D5CB8
S1133C70656D6C69625C696E635C656D5F677069D4
S1133C806F2E6800433A2F55736572732F722F534A
S1133C90696D706C696369747953747564696F2FA5
S1133CA053444B732F6765636B6F5F73646B2F7043
S1133CB06C6174666F726D2F6472697665722F62BF
S1133CC07574746F6E2F7372632F736C5F73696D89
S1133CD0706C655F627574746F6E2E63001E0000F5
S1133CE003433A2F55736572732F722F53696D70A6
S1133CF06C696369747953747564696F2F53444BA9
S1133D00732F6765636B6F5F73646B2F706C617483
S1133D10666F726D2F656D6472762F75617274644F
S1133D2072762F7372632F756172746472762E6368
S1133D3000000000050000000000000000C20100B7
S1133D40000500000010000000000000000000005A
S1133D50050000000000000000C201000002000095
S1133D60001000000000000000000000000000003F
S1133D70433A2F55736572732F722F53696D706CAC
S1133D80696369747953747564696F2F53444B7311
S1133D902F6765636B6F5F73646B2F706C61746600
S1133DA06F726D2F656D6C69622F7372632F656D11
S1133DB05F636D752E6300020101030302060105B2
S1133DC004433A2F55736572732F722F53696D70C4
S1133DD06C696369747953747564696F2F53444BC8
S1133DE0732F6765636B6F5F73646B2F706C6174A3
S1133DF0666F726D2F656D6C69622F7372632F65C8
S1133E006D5F636F72652E6300433A2F557365725D
S1133E10732F722F53696D706C696369747953746D
S1133E207564696F2F53444B732F6765636B6F5FC2
S1133E3073646B2F706C6174666F726D2F656D6C3B
S1133E4069622F7372632F656D5F656D752E6300F4
S1133E50433A2F55736572732F722F53696D706CCB
S1133E60696369747953747564696F2F53444B7330
S1133E702F6765636B6F5F73646B2F706C6174661F
S1133E806F726D2F656D6C69622F7372632F656D30
S1133E905F6575736172742E6300633A5C75736554
S1133EA072735C725C73696D706C69636974797345
S1133EB0747564696F5C73646B735C6765636B6F63
S1133EC05F73646B5C706C6174666F726D5C656D5E
S1133ED06C69625C696E635C656D5F6275732E68A4
S1133EE000433A2F55736572732F722F53696D70A7
S1133EF06C696369747953747564696F2F53444BA7
S1133F00732F6765636B6F5F73646B2F706C617481
S1133F10666F726D2F656D6C69622F7372632F65A6
S1133F206D5F6770696F2E6300433A2F5573657236
S1133F30732F722F53696D706C696369747953744C
S1133F407564696F2F53444B732F6765636B6F5FA1
S1133F5073646B2F706C6174666F726D2F656D6C1A
S1133F6069622F7372632F656D5F6C646D612E637C
S1133F7000433A2F55736572732F722F53696D7016
S1133F806C696369747953747564696F2F53444B16
S1133F90732F6765636B6F5F73646B2F706C6174F1
S1133FA0666F726D2F656D6C69622F7372632F6516
S1133FB06D5F727463632E6300433A2F55736572A9
S1133FC0732F722F53696D706C69636974795374BC
S1133FD07564696F2F53444B732F6765636B6F5F11
S1133FE073646B2F706C6174666F726D2F656D6C8A
S1133FF069622F7372632F656D5F75736172742EBE
S1134000630001030401010109030B0B02000020FA
S11340102000038C8C3C00000000000000012604FA
S11340200000010000000000433A2F5573657273CD
S11340302F722F53696D706C696369747953747549
S113404064696F2F53444B732F6765636B6F5F73A2
S1134050646B2F706C6174666F726D2F736572760A
S11340606963652F736C65657074696D65722F7310
S113407072632F736C5F736C65657074696D6572C0
S11340802E63000100000005000200000300433A13
S11340902F55736572732F722F53696D706C69633A
S11340A069747953747564696F2F53444B732F6724
S11340B065636B6F5F73646B2F706C6174666F7292
S11340C06D2F736572766963652F7564656C6179AC
S11340D02F7372632F736C5F7564656C61792E63E3
S10B40E000000000481100205B
S10B40E898C0FF7F01000000F5
S11340F0000000000103020000040100000006406B
S113410000C201000000050601000010000060006C
S1134110030008000700000034100020B410002041
S1134120D411002000000000000006000000000080
S1134130000000000000000000000000000000007B
S1134140000000000000000000000000000000006B
S1134150000000000000000000000000000000005B
S1134160000000000000000000000000000000004B
S1134170000000000000000000000000000000003B
S1134180000000000000000000000000000000002B
S1134190000000000000000000000000000000001B
S11341A00000000000000000000006000000000005
S11341B000000000000000000000000000000000FB
S11341C000000000000000000000000000000000EB
S11341D000000000000000000000000000000000DB
S11341E000000000000000000000000000000000CB
S11341F000000000000000000000000000000000BB
S113420000000000000000000000000000000000AA
S1134210000000000000000000000000000000009A
S113422000000000C0EA2101C0EA210100F04902B7
S113423000800000FFFF01000000000000000000FB
S1134240000000000000000000000000000000006A
S1134250000000000000000000000000000000005A
S1134260000000000000000000000000000000004A
S1134270000000000000000000000000000000003A
S1134280000000000000000000000000000000002A
S11342900000000000000000650100004101000072
S903069D59
